:030000000209C131
:0C09C100787FE4F6D8FD75811E02093134
:0D09B40054454D50455241545552453D00AB
:10093100E4F5A07580FFF5B01208DB7BFF7A097939
:10094100B412090712099C1209817F431209D77F4A
:08095100327E0012096180D81A
:1008DB007F011209CD12095D7F061209CD12095D48
:1008EB007F0E1209CD12095D7F381209CD12095DF9
:0C08FB007F801209CD7F017E00020961A0
:08095900C2B1D2B27F017E00A1
:10096100E4FDFCC3ED9FEC9E5015E4FBFA0BBB00CC
:0F097100010ABA04F8BBFBF50DBD00010C80E4D0
:010980002254
:0A09CD008FA0C2B0120959C2B22275
:0A09D7008FA0D2B0120959C2B2225B
:10099C00C2B37F027E00120961D2B320B5FD7F0283
:0809AC007E00120961D2B522A0
:10098100C2B47F027E00120961AF808F828E837FA5
:0B09910001120961D2B4AF8202086EAF
:04086E00AB07AA0624
:10087200900000D3EB9400EA9400402A7C007D0AA9
:10088200AF03AE02120819AF82EF25E02408F8A6E2
:100892000408A6057C007D0AAF03AE02120819AA5D
:1008A20006AB07A380CDE582158270021583C3E5EE
:1008B20083648094804021AF82EF25E02408F80809
:1008C200E62430F5A0C2B1D2B012095BC2B2E58211
:0808D200158270DA158380D64F
:0108DA0022FB
:100907008B1C8A1D891EAB1CAA1DA91E120800FF7D
:1009170060171209D77F027E001209617401251E34
:0A092700F51EE4351DF51D80DD22EC
:10080000BB010689828A83E0225002E722BBFE02F6
:09081000E32289828A83E4932229
:10081900BC000BBE0029EF8DF084FFADF022E4CCC3
:10082900F875F008EF2FFFEE33FEEC33FCEE9DEC8C
:10083900984005FCEE9DFE0FD5F0E9E4CEFD22EDD2
:10084900F8F5F0EE8420D21CFEADF075F008EF2F1C
:10085900FFED33FD4007985006D5F0F222C398FD0D
:050869000FD5F0EA22AA
:00000001FF
